:020000040800F2
:10000000400C00208D010008BF19000809160008E7
:10001000BD190008B9020008111B0008000000000B
:10002000000000000000000000000000C3190008EC
:10003000D502000800000000C1190008C519000819
:10004000A7010008A7010008A7010008A7010008F0
:10005000A7010008A7010008A7010008A7010008E0
:10006000A7010008A7010008A7010008A7010008D0
:10007000BD020008C9020008A7010008A701000886
:10008000A7010008A7010008A7010008A7010008B0
:10009000A7010008A7010008A7010008A7010008A0
:1000A000A7010008A7010008A7010008A701000890
:1000B000A7010008A7010008A7010008A701000880
:1000C000A7010008A7010008A7010008A701000870
:1000D000A7010008A7010008A7010008A701000860
:1000E000A7010008A7010008A701000800F002F816
:1000F00000F03CF80AA090E8000C82448344AAF186
:100100000107DA4501D100F031F8AFF2090EBAE883
:100110000F0013F0010F18BFFB1A43F0010318473B
:10012000A4260000C4260000103A24BF78C878C175
:10013000FAD8520724BF30C830C144BF04680C60ED
:10014000704700000023002400250026103A28BF35
:1001500078C1FBD8520728BF30C148BF0B60704739
:100160001FB500F05DF81FBD10B510BD00F06EF8B2
:100170001146FFF7F5FF01F0C1FF00F08CF803B462
:10018000FFF7F2FF03BC00F091F800000948804738
:1001900009480047FEE7FEE7FEE7FEE7FEE7FEE769
:1001A000FEE7FEE7FEE7FEE704480549054A064B81
:1001B00070470000C9190008ED0000084006002043
:1001C000400C002040080020400800204FF00002B2
:1001D00000B5134694469646203922BFA0E80C503D
:1001E000A0E80C50B1F12001BFF4F7AF090728BF18
:1001F000A0E80C5048BF0CC05DF804EB890028BF94
:1002000040F8042B08BF704748BF20F8022B11F0BC
:10021000804F18BF00F8012B704770477047704738
:1002200070B5064C7C44064D7D4403E020682044B4
:100230008047241DAC42F9D170BD0000BC250000F0
:10024000BC25000000487047E00500207546FFF718
:10025000F9FFAE4605006946534620F00700854683
:1002600018B020B5FFF7A0FFBDE820404FF0000612
:100270004FF000074FF000084FF0000B21F007018E
:10028000AC46ACE8C009ACE8C009ACE8C009ACE8D1
:10029000C0098D46704710B50446AFF30080204674
:1002A000BDE81040FFF76BBF704700000149182000
:1002B000ABBEFEE726000200FEE70000014800F0AA
:1002C0000DB800009C050020014800F007B80000B0
:1002D00058050020704772B6FEE700002DE9F05F78
:1002E000C16B0C6801680B68D0F840C0042202FAA8
:1002F0000CF2494DDFF824A1494E4A4FDFF828B1EE
:10030000DFF828E122422CD05A072AD50A68920643
:1003100003D40A6822F004020A600168A94201D1EC
:10032000042219E0514501D1402215E0B14202D129
:100330004FF4806210E0B94202D14FF480420BE0EA
:10034000594502D14FF4802206E0714502D14FF4A5
:10035000800201E04FF080622F4908394A60C16A8B
:100360003BE04FF0020808FA0CF818EA040F4FF0CF
:1003700000094FF0010235D05FEA837832D50B686F
:100380009B0605D40B6823F00A030B6080F821203C
:100390000168A94201D1022219E0514501D1202270
:1003A00015E0B14202D14FF4007210E0B94202D11F
:1003B0004FF400520BE0594502D14FF4003206E0F1
:1003C000714502D14FF4001201E04FF00072124962
:1003D00008394A6080F82090816A00291AD0BDE867
:1003E000F05F0847082505FA0CF5254212D01B07D7
:1003F00010D50B6823F00E030B6090F84010C36B10
:1004000002FA01F15960826380F8212080F820907F
:10041000016BE2E7BDE8F09F080002401C000240CB
:100420003000024044000240580002406C0002408C
:1004300030B528B308C8134914221944B1FBF2F1AE
:100440008900C16310498163022141771A6843F62C
:10045000F0718A43D0E900142143D0E902452C43CE
:1004600021430469214344692143846921431143A1
:10047000196000214163012242770177084630BDAF
:10048000012030BDF8FFFDBF000002402DE9F84F0C
:10049000DFF8B8910024A9F1040B23460F2709F1D6
:1004A000040AABF1040EC9E00125A5402A40AA4286
:1004B0007DD1674ED1F804C0ACEB0608B44532D00C
:1004C00014DCBCF1030F3AD009DCBCF1000F2AD0D8
:1004D000BCF1010F1CD0BCF1020F31D11DE0BCF109
:1004E000110F17D0BCF1120F2AD119E0B8F5881FEF
:1004F00019D006DCB8F5803F15D0B8F5801F1FD1A4
:1005000011E0B8F5001F0ED0B8F5041F18D10AE0AD
:10051000CB6815E0CB681B1D12E0CB6808330FE0F9
:10052000CB680C330CE08B682BB1012B4FF0080328
:1005300003D0456104E0042302E0056100E00023EC
:10054000FF2A01D8064601E000F104064FEA8405BF
:1005500001D9A5F12005D6F8008007FA05FC28EAA4
:100560000C0803FA05F548EA0508C6F800804D684E
:10057000ED0062D5374DAE6946F00106AE61AD695A
:1005800024F0030605F001050095334D06EB050C3C
:10059000DCF80850A607360F07FA06F825EA080522
:1005A000DFF8B880404503D14FF0000817E044E081
:1005B000DFF8AC80404502D14FF001080FE0DFF8D2
:1005C000A480404502D14FF0020808E0DFF898808F
:1005D000404502D14FF0030801E04FF0040808FA4B
:1005E00006F848EA0508CCF808804D68D9F800609C
:1005F000ED024D4601D5164300E096432E604D684E
:10060000DAF80060AD02554601D5164300E0964386
:100610002E604D68DBF80060AD035D4601D51643E2
:1006200000E096432E604D68DEF80060ED037546ED
:1006300001D5164300E096432E60641C0D682A46DF
:10064000E5407FF431AFBDE8F88F000008040140B9
:10065000000011100010024000000140000801409D
:10066000000C014000100140001401400AB101617A
:1006700070470904FBE700000148806870470000EC
:100680000C000020024881680278114481607047A4
:100690000C000020074810B5016841F0100101600E
:1006A000032000F075F80F2000F006F800F024F8A1
:1006B000002010BD0020024070B50D4D04464FF4DF
:1006C0007A712878B1FBF0F00A490968B1FBF0F0C3
:1006D00000F0E2FA48B9102C07D200222146501E41
:1006E00000F036F800206C6070BD012070BD000085
:1006F0000C000020180000200C4808B5816941F06A
:1007000001018161816901F001010091C16941F03C
:100710008051C161C06900F0805000900448416878
:1007200021F0E06141F00071416008BD001002401D
:1007300000000140002809DB00F01F020121914068
:100740004009800000F1E020C0F80011704700006F
:10075000F0B40E4B1B680C46C3F30223C3F107052C
:10076000042D00D90425191D072901D2002300E01A
:10077000DB1E012606FA05F1491E214099409E40E4
:10078000761E16403143F0BC01F0C4BB0CED00E016
:10079000064900F0070208684FF6FF03184040EAD8
:1007A0000220034A10430860704700000CED00E08F
:1007B0000000FA052DE9F0470F46050061D0434ED1
:1007C000306800F00700B84209D2306820F0070016
:1007D00038433060306800F00700B84251D12868D3
:1007E0003B4C810712D5400703D5606840F4E060B8
:1007F00060602878000703D5606840F4605060604E
:100800006068A96820F0F000084360602878C0079D
:1008100028D06868012810D02168022810D08907E4
:1008200000292EDA616821F0030101436160FFF7BE
:1008300023FF804641F288390DE021688903EFE704
:100840008901EDE7FFF718FFA0EB0801494502D940
:100850000320BDE8F0876068696800F00C00B0EB29
:10086000810FEFD1306800F00700B8420BD9306833
:1008700020F0070038433060306800F00700B842CD
:1008800001D00120E5E72878400705D56068E968D0
:1008900020F4E060084360602878000706D56068AF
:1008A000296920F4605040EAC100606000F038F827
:1008B0006168084AC1F30311515CC84006490860E9
:1008C00006480068FFF7F8FE0020C2E7002002405B
:1008D00000100240AC270008180000201000002083
:1008E0000448054900684968044AC1F30221515C83
:1008F000C84070471800002000100240BC270008C4
:100900000448054900684968044AC1F3C221515CA2
:10091000C84070471800002000100240BC270008A3
:10092000104A516811F00C0003D0042803D00828A5
:1009300003D00D4870470D4870470D48C1F38343FD
:10094000C903C05C0AD55168094AC1F34041921EEF
:10095000515C064A5043B0FBF1F0704705494843EB
:10096000704700000010024000127A000024F400DA
:100970009C27000800093D002DE9F84F040070D0C5
:100980002078C04DC00749D06868C0F381000128B5
:1009900007D06868C0F38100022809D16868C003E5
:1009A00006D52868800339D560680028E7D035E08F
:1009B0006068B0F5803F0BD010B1B0F5A02F11D01A
:1009C000286820F480302860286820F4802002E025
:1009D000286840F480302860606890B1FFF74CFED2
:1009E00006460AE0286840F480202860F0E700BF4F
:1009F000FFF742FE801B642873D828688003F7D570
:100A00000CE0FFF739FE064605E000BFFFF734FEB5
:100A1000801B6428F0D828688003F7D420789A4E89
:100A200080074FF001094FF0000839D5686810F0D1
:100A30000C0F07D06868C0F38100022809D16868EC
:100A4000C00306D42868800714D52069012808D17E
:100A500010E02069B0B1C6F80090FFF70DFE074620
:100A600005E00AE1FFF708FEC01B0228C4D8286889
:100A70008007F7D52868616920F0F80040EAC100D6
:100A800028600DE0C6F80080FFF7F6FD074604E099
:100A9000FFF7F2FDC01B022823D828688007F7D48F
:100AA000207800072CD57948A169D9B1C0F8009009
:100AB000FFF7E2FD074604E0FFF7DEFDC01B02285A
:100AC0000FD8686A8007F7D571484FF4FA5100686B
:100AD000B0FBF1F0009000BF0098411E0091FAD2E7
:100AE0000EE080E0C0F80080FFF7C6FD074604E096
:100AF000FFF7C2FDC01B022875D8686A8007F7D4CB
:100B00002078400760D5E8690027C00008D4E8696C
:100B100040F08050E861E869012700F080500090C3
:100B20005C480168C90513D40168834641F48071AB
:100B30000160FFF7A1FD824606E000BFFFF79CFDC4
:100B4000A0EB0A0064284ED8DBF80000C005F5D5FC
:100B5000E06801280AD008B1052813D0286A20F0DF
:100B600001002862286A20F0040002E0286A40F0B0
:100B700001002862E06841F2883B98B1FFF77CFDF4
:100B800082460BE0286A40F004002862EEE700BFCE
:100B9000FFF772FDA0EB0A0159455AD8286A800771
:100BA000F6D50CE0FFF768FD824605E0FFF764FD2F
:100BB000A0EB0A0159454CD8286A8007F6D41FB12A
:100BC000E86920F08050E861E06988B36968C1F3A2
:100BD0008101022944D00228C6F8608004D0FFF7C2
:100BE0004BFD044638E034E0FFF746FD074604E0DD
:100BF000FFF742FDC01B02282BD828688001F7D4DC
:100C0000206AB0F5803F05D16868A16820F4003003
:100C100008436860D4E908010843696821F4741145
:100C200008436860C6F86090FFF726FD044606E0BA
:100C300025E000BFFFF720FD001B022809D8286827
:100C40008001F7D51BE000BFFFF716FD001B02284F
:100C500002D90320BDE8F88F28688001F4D40EE0A3
:100C60000128F7D06868226A00F48031914204D1EB
:100C7000616A00F47010884201D00120EAE7002088
:100C8000E8E70000001002400000424280044242B7
:100C9000180000200070004010B5401EB0F1807FA9
:100CA00001D3012010BD4FF0E02460610F216017D7
:100CB00001F030F90020A06107202061002010BD64
:100CC00010B590F83C20012A22D0012280F83C2067
:100CD000CA688C6822F4407222434C6822F4806215
:100CE00022430C6822F4006222430C6922F48052F1
:100CF00022434C6922F400522243C969002322F4A2
:100D000080420A4301684A6480F83C30002010BDEC
:100D1000022010BD70B590F83C20012A26D0012495
:100D200080F83C40022280F83D2003685A689D68A4
:100D300022F070060A6832435A600D4B02689A42EC
:100D400008D0B2F1804F05D00A4B9A4202D00A4B2C
:100D50009A4204D1496825F080031943916080F8D4
:100D60003D40002180F83C10084670BD022070BD57
:100D7000002C0140000400400008004090F83D10A5
:100D8000012901D001207047022180F83D10006840
:100D90000B49884208D0B0F1804F05D009498842FC
:100DA00002D00949884204D1816801F0070106296F
:100DB00003D0016841F0010101600020704700008C
:100DC000002C0140000400400008004090F83D1055
:100DD000012901D001207047022180F83D100168EF
:100DE000CA6842F00102CA6000680B49884208D014
:100DF000B0F1804F05D00949884202D008498842A5
:100E000004D1816801F00701062903D0016841F08F
:100E10000101016000207047002C014000040040E7
:100E2000000800402DE9F0410D46040003D094F87D
:100E30003D0018B108E00120BDE8F081002084F8F1
:100E40003C00204600F040F8022084F83D00206875
:100E5000816844F2070291438160211D206800F0FF
:100E6000B5FD226890689169166A2B68AF690343E3
:100E700040F20330814341EA0721A868EF69084343
:100E80004FF6FC418843E96840EA0720014328699E
:100E90002F6A000140EA0730084369686D6926F04F
:100EA000220646EA0515294393602268906154F8AA
:100EB000460B0162012004F81F09E0752076E076F8
:100EC0002077A0750020B7E710B586B00024009405
:100ED0000194029403940068B0F1804F30D1194816
:100EE000C16941F00101C161C16901F001010491D1
:100EF000816941F004018161816901F0040104917B
:100F0000816941F0080181618069694600F008004B
:100F100004904FF4004000900B48FFF7B7FA082008
:100F2000CDE90004694609480294FFF7AFFA084981
:100F3000486820F4407040F0E06040F48070486001
:100F400006B010BD0010024000080140000C014036
:100F5000000001402DE9F041054690F83C000026D4
:100F60000C46012810D0012085F83C0072B1042AFB
:100F70001CD0082A2CD00C2A50D00126002085F83D
:100F80003C003046BDE8F0810220FBE7D4E90012C6
:100F9000E368286800F090FD2868816921F00C0161
:100FA000816128688169A26811430FE0D4E90012C9
:100FB000E368286800F036FF2868816921F4406101
:100FC000816128688169A26841EA02218161D5E7CF
:100FD0002868D4E9002C277B036A016A21F4807118
:100FE0000162C16923F4007321F0030141EA0C019D
:100FF00021F0F00C39074FF400774CEA116107EA51
:1010000002221A43C16102622868C16921F00C0101
:10101000C1612868C169A26811432BE02868D4E93E
:101020000021E768036AD0F820C02CF4805CC0F887
:1010300020C0D0F81CC023F400532CF4407C4CEAB0
:10104000012121F4704C4FF6FF7101EA07314FF492
:10105000005741EA0C0107EA02321A43C1610262F9
:101060002868C16921F44061C1612868C169A2682A
:1010700041EA0221C16181E710B5040003D094F870
:101080003D0010B107E0012010BD002084F83C00B5
:10109000204600F01EF8022084F83D00211D206843
:1010A00000F094FC012084F8460084F83E0084F8A7
:1010B0003F0084F8400084F8410084F8420084F83E
:1010C000430084F8440084F8450084F83D00002083
:1010D00010BD704730B50446002551B104290DD02C
:1010E000082910D094F8410094F84520012811D126
:1010F0000EE094F83E0094F84220F7E794F83F00A1
:1011000094F84320F2E794F8400094F84420EDE787
:10111000012A01D0012030BD022059B1042912D08A
:10112000082919D084F8410084F845000C2938D0EA
:10113000012534E084F83E0084F842002068C2684B
:1011400042F0020210E084F83F0084F84300206877
:10115000C26842F0040207E084F8400084F84400CA
:101160002068C26842F00802C2600122206800F0D4
:1011700069FC0E492068884208D0B0F1804F05D044
:101180000B49884202D00B49884204D1816801F0A2
:101190000701062903D0016841F0010101602846DA
:1011A00030BD2068C26842F01002DDE7002C01402B
:1011B000000400400008004010B586B000210091F6
:1011C00001910291039103682348244A022183423A
:1011D0000FD1906940F0040090619069039100F094
:1011E000040004904FF42060CDE9000169461C48DA
:1011F0002EE01C4C1C48A34219D1936943F008030C
:1012000093619269039102F0080204921022CDE9E1
:1012100000216946FFF73AF91448416821F440611A
:1012200041F0E06141F40061416006B010BD104C36
:10123000A342FAD1936943F0080393619269039141
:1012400002F0080204924FF47072CDE90021694661
:10125000FFF71CF9E9E70000002C014000100240F4
:101260000008014000040040000C01400000014063
:101270000008004070B5044690F83C0000260D467A
:1012800001280FD0012084F83C006AB1042A1DD047
:10129000082A2FD00C2A3FD00126002084F83C00D9
:1012A000304670BD022070BD206800F045FD20680A
:1012B000816941F0080181612068816921F00401A0
:1012C0008161206881692A69114311E0206800F07A
:1012D000C7FB2068816941F40061816120688169F0
:1012E00021F480618161206881692A6941EA0221D3
:1012F0008161D2E7206800F047FD2068C16941F0B4
:101300000801C1612068C16921F00401C161206840
:10131000C1692A69114311E0206800F061FD20686D
:10132000C16941F40061C1612068C16921F4806133
:10133000C1612068C1692A6941EA0221C161ACE743
:1013400010B5040003D094F83D0010B107E001206F
:1013500010BD002084F83C00204600F01FF8022059
:1013600084F83D00211D206800F030FB012084F846
:10137000460084F83E0084F83F0084F8400084F87A
:10138000410084F8420084F8430084F8440084F863
:10139000450084F83D00002010BD000000B585B078
:1013A000002100910191029103911E4A01681E489B
:1013B000914207D1816941F400618161806900F443
:1013C00000602DE0194A914220D1C16941F002012B
:1013D000C161C16901F002010491816941F0080114
:1013E00081618069694600F0080004900220009045
:1013F0000F48FFF74BF80F48416821F4406141F076
:10140000E06141F40061416005B000BD0A4A9142CB
:10141000FAD1C16941F00401C161C06900F0040062
:101420000490F1E7002C014000100240000400404D
:10143000000C0140000001400008004010B50446C7
:10144000022249B104290ED0082913D094F8410092
:10145000012816D0012010BD94F83E000128F9D1D2
:1014600084F83E200FE094F83F000128F2D184F880
:101470003F2008E094F840000128EBD184F8402098
:1014800001E084F841200122206800F0DBFA0F49D6
:101490002068884203D1426C42F4004242642068D2
:1014A000884208D0B0F1804F05D00949884202D067
:1014B0000849884204D1816801F00701062903D058
:1014C000016841F001010160002010BD002C0140C5
:1014D000000400400008004070B5040004D094F8F7
:1014E0004100002510B106E0012070BD84F8405095
:1014F000204600F023F8242084F841002068C168C9
:1015000021F40051C160204600F0A8FC2068016968
:1015100021F4904101612068416921F02A01416173
:101520002068C16841F40051C1606564202084F8DE
:10153000410084F842006563002070BDF0B585B0BD
:1015400000240646009401940294039400682949FB
:1015500088424CD12848C16941F48021C161C169E8
:1015600001F480210491816941F008018161806961
:10157000224D00F0080004904FF48060009002209B
:1015800001900320039069462846FEF77FFFE81488
:10159000CDE90004694628460294FEF777FF194D0D
:1015A00017488027C5E90004C5E902472C616C6132
:1015B000AC612846EC61FEF73BFF08B1FEF78BFEFD
:1015C000F5636E620F4D0E484435143801C5102086
:1015D00091C50C4845F8104944306C61AC61EC6130
:1015E000FEF726FF08B1FEF776FEB5636E6205B022
:1015F000F0BD00000048004000100240000C014017
:101600003000024058050020FEE700000D4808B5F4
:10161000416941F0010141614069002200F001008F
:10162000009011460C20FFF793F80C20FFF782F88A
:10163000002211460D20FFF78BF8BDE808400D2071
:10164000FFF778B8001002402DE9F04786B000247B
:1016500032480094019402940394816941F010018E
:101660008161816901F010010491816941F02001DB
:101670008161816901F020010491816941F00801D3
:101680008161816901F008010491816941F00401DF
:1016900081618069DFF8888000F004004FF46045C4
:1016A0000490002229464046FEF7E0FFDFF87490E0
:1016B000002224214846FEF7D9FFDFF86CA04FF442
:1016C0008057002239465046FEF7D0FF009502268B
:1016D00001250396CDE9015469464046FEF7D6FE42
:1016E0002420CDE90005CDE9024669464846FEF7CB
:1016F000CDFEA80200900D48CDE901046946504690
:10170000FEF7C4FE00970396CDE9015469465046A2
:10171000FEF7BCFE06B0BDE8F087000000100240F6
:1017200000100140000C01400008014000001110B1
:1017300010B592B000240F941C2168461094FEF757
:1017400045FD202107A8FEF741FD244822490160FC
:101750004721C0E9011440F2CF71C0E9031444618C
:101760008461FFF7EDFD08B1FEF7B5FD0F940FA9F9
:101770001A481094FFF7CEFA08B1FEF7ACFD6020CE
:10178000CDE900040294039404940594042269466C
:1017900012480694FFF76EFD08B1FEF79CFD0C227F
:1017A00069460E48FFF766FD08B1FEF794FD079401
:1017B000089409944FF400500A94CDE90B4007A90E
:1017C00006480E94FFF77CFA08B1FEF784FD034843
:1017D000FFF7F2FC12B010BD002C0140F003002016
:1017E00010B58CB024216846FEF7F0FC00241548A3
:1017F00009944FF080410A94C0E900144FF6FF713C
:10180000C0E90241046184610120CDE90004CDE911
:1018100002040494CDE905400794694609480894F8
:10182000FFF700FB08B1FEF756FD099409A905482A
:101830000A94FFF76FFA002801D0FEF74CFD0CB0B8
:1018400010BD00003804002010B58EB000240B94A9
:101850001C2168460C94FEF7B9FC214807940894B3
:1018600009941E490A9401604721C0E901143121FD
:10187000C0E903148461FFF763FD08B1FEF72BFD97
:101880001748FFF7F9FB08B1FEF725FD0B940BA9EC
:1018900013480C94FFF73EFA08B1FEF71CFD6020D8
:1018A000CDE900040294002269460D480494FFF734
:1018B000E1FC08B1FEF70FFD0120CDE907400994D6
:1018C0000C2207A906480A94FFF744FB08B1FEF76B
:1018D00002FD0348FFF770FC0EB010BD000400408D
:1018E0008004002010B58AB0002407941C216846AB
:1018F0000894FEF76BFC2248204901604721C0E9AB
:10190000011440F2CF71C0E903148461FFF718FDA0
:1019100008B1FEF7E0FC079407A919480894FFF7FF
:10192000F9F908B1FEF7D7FC6020CDE90004029474
:101930000022694612480494FFF79CFC08B1FEF7A8
:10194000CAFC042269460E48FFF794FC08B1FEF772
:10195000C2FC082269460A48FFF78CFC08B1FEF772
:10196000BAFC0C2269460648FFF784FC08B1FEF772
:10197000B2FC0348FFF720FC0AB010BD000800408D
:10198000C80400200C4810B50A4901604FF4E13149
:101990004160002181600C22C160C0E904128161B4
:1019A000C161FFF799FD002803D0BDE81040FEF7A4
:1019B00092BC10BD0048004010050020FEE7FEE785
:1019C00070477047FEF75EBE70470000F0B50268D2
:1019D000194B1A4C1A4D4FF08047984205D0B84227
:1019E00003D0A04201D0A84203D122F070064A6879
:1019F0003243984205D0B84203D0A04201D0A84259
:101A000003D122F44074CA6822434C6922F0800258
:101A1000224302608A68C2620A688262984201D1E7
:101A200009690163012141610169C90703D00169A5
:101A300021F001010161F0BD002C014000040040D3
:101A40000008004010B501F01F030121046A99400D
:101A50008C430462016A9A401143016210BD000088
:101A600030B5026A036A23F0100303624368846995
:101A70000D6824F4E64444EA05248D6822F020022F
:101A800042EA05120B4DA8420ED1CD6822F0800229
:101A900042EA05124D6923F4406343EA85038D69E8
:101AA00022F0400243EA8503436084614968816310
:101AB000026230BD002C014070B5056A046A24F052
:101AC0000104046284690F4EB04208D0B0F1804F27
:101AD00005D00D4EB04202D00C4EB04203D124F0DE
:101AE0000304144301E044F001041A0724F0F00455
:101AF00044EA126225F00A0301F00A0119438261E7
:101B0000016270BD002C014000040040000800404C
:101B1000FEE7000070B5124A054640685060E8686C
:101B200090600C002868C2E9070406D0042C06D097
:101B3000082C06D00C2C06D008E0012004E002207E
:101B400002E0042000E0082082F824002846FFF785
:101B50003DF921462846BDE87040FFF7BBBA0000BA
:101B60004C03002070B5204D1E4C2968A088886366
:101B70001E4E22784FF400413046FEF777FD29686B
:101B8000A0884863627820211948FEF76FFD296814
:101B9000A0880864A27871143046FEF767FD2968B2
:101BA000A088C863E2784FF480413046FEF75EFDBE
:101BB000104DE08829680864012291020E48FEF762
:101BC00055FD2968208988630C4800F078FA00F0F8
:101BD0001DFC0B4909684863BDE87040074800F0E8
:101BE000A9B9000000000020C80400200010014036
:101BF000000C0140F003002000080140A003002079
:101C00008004002010B590B028216846FEF7DEFA67
:101C100014210AA8FEF7DAFA01210804CDE9001020
:101C20004200029202240491CDE907404FF4E010F3
:101C300009906846FEF7A0FE08B172B6FEE70F20D5
:101C4000CDE90A0400204FF48061CDE90C010E902B
:101C500002210AA8FEF7AEFD002801D072B6FEE709
:101C600010B010BD10B51548FFF7B0F81448FFF7D5
:101C700085F81448FFF782F81348FFF77FF804212E
:101C80000F48FFF7DBFB0C210D48FFF7D7FB0021C6
:101C90000A48FFF7D3FB00210B48FFF7CFFB0C21CD
:101CA0000948FFF7CBFB08210748FFF7C7FBBDE852
:101CB000104004210448FFF7C1BB0000800400204D
:101CC000F003002038040020C804002070B5114E35
:101CD000DDE9045401600968B14204D10E49496844
:101CE00081600E490EE00E4EB14204D10D494968A3
:101CF00081600D4906E00D4EB14204D10C4949689E
:101D000081600C4941600273036105754475406848
:101D1000047070BD003801401C0000204C01002000
:101D2000004400402C0000204C00002000480040EF
:101D30003C0000204C02002030B5036A026A22F009
:101D4000010202624268846924F073050C682C4326
:101D500023F002058B682B430A4DA8420BD123F0D8
:101D60000805CB6822F440722B434D6923F004032D
:101D700015438A692A43426084614968416303626A
:101D800030BD0000002C014030B5036A026A22F425
:101D9000807202624268C46923F4007324F0730500
:101DA0000C682C438D6843EA05230C4DA8420ED1E4
:101DB000CD6823F4006343EA05234D6922F44052C1
:101DC00042EA05128D6923F4806342EA05124260FB
:101DD000C4614968C163036230BD0000002C01404A
:101DE00030B5046A026A22F4805202624268C36912
:101DF0000D6823F4E64343EA05238D6824F4005478
:101E000044EA0534064DA84204D14D6922F48042CB
:101E100042EA85124260C36149680164046230BDD0
:101E2000002C014030B5046A056A25F010050562F2
:101E3000856925F4407545EA022222F470454FF683
:101E4000FF7202EA033224F0A0032A43A02404EA2A
:101E5000011119438261016230BD000070B5044672
:101E600000680169E26821F4405111430161216970
:101E7000A0680843616908432168CA6841F20C639D
:101E80009A430243CA6020684169A26921F4407103
:101E9000114341611E492068884202D1FEF730FD9E
:101EA00001E0FEF71DFD00EBC00101EB00126068D0
:101EB00064218000B2FBF0F3B3FBF1F36FF018067E
:101EC0007343B2FBF0F5B2FBF0F605EB830532236A
:101ED00003EB0515B5FBF1F5B6FBF1F605F0F005E2
:101EE00005EB0615B2FBF0F6B2FBF0F0B0FBF1F03B
:101EF0006FF01802504306EB800003EB0010B0FBBC
:101F0000F1F0216800F00F002844886070BD0000E7
:101F1000003801400907090E002804DB00F1E02029
:101F200080F80014704700F00F0000F1E02080F806
:101F3000141D70472DE9F84F04464FF0000AD4E90C
:101F4000110100F0B5FB0546B0F5000F01DA85F090
:101F500000400746616800F079FA03D2A06C0025C2
:101F60002F4660642946206A00F0A4FA0090A06B16
:101F70004FF07E5810F0FF4F06D03846E16B00F06E
:101F800065FA03D846461AE046461EE03946E06B3D
:101F900000F05CFA13D2D4E90E0100F007F93946DB
:101FA00000F054FB0BD2D4E90E61304600F0FEF88D
:101FB000394600F07DFB314600F066F906463846AA
:101FC000E16B00F043FB00D80026206B804610F048
:101FD000FF4F11D0D4F824904046494600F054F900
:101FE000834688F00040494600F04EF901465A46C3
:101FF00004F14C0000F0C8F8216C11F0FF4F03D041
:10200000384600F023FA10D23046216800F052FA28
:10201000294600F04FFAE16C00F0C8F80146E06490
:10202000606A00F047FA824601E00020E064207A0E
:1020300088B36169D4F81C0000F03AFBA16A00F093
:1020400039FA216800F020F906462169606C00F039
:102050002FFBE16A00F02EFA07465146009800F087
:10206000A5F8314600F0A2F8394600F09FF8E0618B
:10207000626B12F0FF4F05D082F0004104F11C00AA
:1020800000F082F8A06CE060606C2061E069C4E957
:102090000505BDE8F88FFFE72846A169CCE72DE9E3
:1020A000F04F0DF1240E9EE8F01F00F1200E8EE897
:1020B0007E0EC0E9007880F808C0BDE8F08FC069E6
:1020C000704700000C49002008774877C1E90800F4
:1020D0002831C860086148618861C8610862486247
:1020E0008862C862086348638863C8630864486498
:1020F0008864C86470470000780300208AB01E48D6
:10210000FFF718FFFEF7C6FAFFF77CFDFFF79CFA12
:10211000FFF77CFAFFF70CFBFFF762FBFFF794FB7E
:10212000FFF7E0FBFFF72EFCAB210520CDE9000116
:1021300011482346062211492838FFF7C7FD002021
:102140000F4907900890CDE90201059006904FF0E5
:102150007E51019004900B4600901A460648FFF706
:102160009EFF0C210748FFF7D5FCFFF77BFD00BF62
:10217000FFF7F8FCFCE70000A0030020100500209A
:102180006F12833A8004002070B5044615460E464F
:10219000006800F05BF901D2266070BD2946206816
:1021A00000F054FAF9D2256070BD000090EA010FEA
:1021B00048BF81F0004100F18282421A3CBF801A80
:1021C00089184FEAD0524FF07F4C1CEA410FA2EB26
:1021D000D15318BF9CEA026F00F03B804FF0004CD7
:1021E0004CEA00204CEA012121FA03FC10EB0C0C14
:1021F0001ED202F1FF325FEA1C2040EBC25038BF12
:1022000070471CF07F0F4FEA400C18BFBCF17F4FA6
:1022100038BF7047C3F12003994008BF20F0010088
:10222000BCF17F4F38BF7047A0F1C04000F009BA41
:102230004FEA3C00000A40EBC25028BF1CF0FF0FE1
:102240004FEA400CE6D018BFBCF17F4F38BF704753
:10225000EAE79CEA026F05D010EA5C0F08BF00F0C5
:102260000040704710B500F0A6F900BF64FBBE3E09
:10227000401058BFC0F14040491058BFC1F1404123
:102280008142EFF3008070474FF47F0C1CEAD012BC
:102290001EBF1CEAD11392EA0C0F93EA0C0F00F058
:1022A000858090EA010F48BF42F4807240F4000C30
:1022B00041F400002CF07F4120F07F4000B58142C6
:1022C000A2EB03020FF2081CACEB504EC0F1000071
:1022D0009EF800E04FEA4E0E00FB0EFC38BF4900AE
:1022E0004FEA2C1C02F5FA020CFB0EF34FEACE1E4D
:1022F0004FEA112C4FEAC1210EEB635E42EB224202
:102300000EFB0CFC4FEA1C5300FB03114FEA112C8F
:102310004FEA01310EFB0CFC4FEADC4C00FB0C11C8
:10232000C14228BF09184CEB03335DF804EB10EBF6
:10233000410143EBC250B2F57C0F38BF704729D53D
:1023400012F0F00F1CBF00F1C04000F000407047D9
:10235000008182838485868788898B8C8D8E8F917E
:102360009293959697999A9C9D9FA0A2A3A5A7A8A2
:10237000AAACAEB0B2B3B5B7B9BCBEC0C2C5C7C9CE
:10238000CCCED1D4D7D9DCDFE2E6E9ECF0F3F7FA32
:10239000FE0000004FEA400C0CF1807CBCF17E4F47
:1023A00028BF7047B0F1C04000F04BB990EA010F70
:1023B0000CEAD11348BF42F48072624538BF6345CE
:1023C00007D213F47F0F16D080EA010000F000401E
:1023D000704710B500F0EFF8097EFC3E00F005B83C
:1023E00080EA010000F00040704780EA010000F040
:1023F000004000F026B912F47F0F04BF0248704776
:1024000080EA010000F01DB90000C07FC10DD1F1CC
:102410009E0206DB4FEA002343F0004323FA02F05A
:102420007047004207D54FEA4001B1F1FE4F02D29A
:102430004FF00000704710B500F0BDF849922480BD
:10244000002070476FEA20007047000050EA010C3E
:1024500000F113801CF5000F58BFBCF5000F01D42C
:102460008842704707D710F5000F58BF11F5000FCD
:1024700015D488427047894270471CF5000F04D577
:10248000BCF5000FF7D5814270474FF0807C1CEB04
:10249000400F38BF1CEB410F01D28142704710B58D
:1024A00000F089F8922449004FF000504FF080511D
:1024B000FFF7DEBE4FF47F0C1CEAD0121EBF1CEAF1
:1024C000D11392EA0C0F93EA0C0F00F0478090EAC8
:1024D000010F48BF42F480724FF0004C4CEA0020DC
:1024E0004CEA012102EB0302A0FB0113A2F500025A
:1024F000002918BF43F001035B0028BF4FEA3303F4
:1025000042EB22425FEA132C4CEBC2502EBFBCEBD5
:10251000436FB2F57C0F70474FEA036CBCF1004F7C
:1025200008BF20F00100B2F57C0F38BF70470BD513
:1025300082F0FF0212F5803FC8BF704700F1C04033
:10254000D8BF00F00040704700F5000C5FEA4C0C6B
:1025500048BF7047B0F1C04000F073B890EA010F77
:102560000CEAD11348BF42F48072624538BF63451C
:1025700004D280EA010000F00040704710B500F07E
:102580001AF800BF8900013E00F007B800F009B852
:102590005FEA410C5FEA1C6C08D080EA010000F0A1
:1025A00050B85FEA400C5FEA1C6CF6D14FF0004077
:1025B000A0F5800070470EF1020E2EF0030E5EF8BB
:1025C000044B244204D44FEA4102B2F17F4F11D8A8
:1025D0004FEA4003B3F17F4F0CD80ED14FEAD07CC5
:1025E000B2F17F4F0CEB4C0C0CF1020C08BF4CEB22
:1025F000D17C04E04FF0080C01E04FEAD17C0CEBF9
:102600004C0324FA03F404F00704B4F1040C06D2DA
:102610000EEB840CBDE810404CF0010C6047DFE885
:102620000CF0070802024FF00040A0F5800010BD3A
:102630000846420018BFD2F1807288BF00F0004007
:1026400010BDFF2141EAD050C005704751EA000C8F
:1026500000F113801CF5000F58BFBCF5000F01D42A
:102660008142704707D711F5000F58BF10F5000FD2
:1026700015D481427047894270471CF5000F04D57C
:10268000BCF5000FF7D5884270474FF0807C1CEBFB
:10269000410F38BF1CEB400F01D28842704780EADF
:1026A000010081EA000180EA0100FFF7F8BE0000A6
:1026B00090EA010F48BF81F000413FF57EAD421A1C
:1026C00004D882F00042A0EB020011444FEAD0523D
:1026D0004FF07F4C1CEA410FA2EBD15318BF9CEA8C
:1026E000026F4AD04FF0004C4CEA00204CEA012126
:1026F00021FA03FCB0EB0C0C0FD412F0FE0F36D015
:102700005FEA4C001DD5001240EBC25038BF704745
:102710001CF03F0F18BF70470BE0A2F101025FEA07
:102720001C2040EBC25038BF70471CF07F0F18BF11
:102730007047C3F12003994014BF401E20F00100F0
:10274000704780084FEA122308BF7047B0FA80FC38
:10275000A2EB0C02CCF1280C60FA0CF093EA122FD9
:1027600004BF00EBC25070474FEAC3707047130AB2
:102770005FEADC1008BF7047F6E79CEA026F04D0FE
:1027800010EA5C0F08BF0020704710B5FFF713FF79
:1027900040DFF63E81F0004070470102020304056D
:1027A000060708090A0B0C0D0E0F101000000000A0
:1027B00000000000010203040607080900000000F1
:1027C00001020304E8270008000000201C000000AC
:1027D00028010008042800081C000020240C000028
:1027E00044010008E1F8FFFF0000000000000000C5
:1027F00000000000010000001000000000000000C8
:0428000000127A0048
:04000005080000ED02
:00000001FF
