:020000040800F2
:1000000090080020890100088B190008D715000806
:10001000891900088F020008211C00080000000058
:100020000000000000000000000000008F19000820
:10003000A9020008000000008D19000891190008AD
:10004000A3010008A3010008A3010008A301000800
:10005000A3010008A3010008A3010008A3010008F0
:10006000A3010008A3010008A3010008A3010008E0
:10007000910200089D020008A3010008A3010008E6
:10008000A3010008A3010008A3010008A3010008C0
:10009000A3010008A3010008A3010008A3010008B0
:1000A000A3010008A3010008A3010008A3010008A0
:1000B000A3010008A3010008A3010008A301000890
:1000C000A3010008A3010008A3010008A301000880
:1000D000A3010008A3010008A3010008A301000870
:1000E000A3010008A3010008A301000800F002F822
:1000F00000F03AF80AA090E8000C82448344AAF188
:100100000107DA4501D100F02FF8AFF2090EBAE885
:100110000F0013F0010F18BFFB1A43F0010318473B
:1001200088200000A8200000103A24BF78C878C1B9
:10013000FAD8520724BF30C830C144BF04680C60ED
:10014000704700000023002400250026103A28BF35
:1001500078C1FBD8520728BF30C148BF0B60704739
:100160001FB51FBD10B510BD00F058F81146FFF7C0
:10017000F7FF01F0CDFF00F076F803B4FFF7F2FFD0
:1001800003BC00F07DF8000009488047094800479B
:10019000FEE7FEE7FEE7FEE7FEE7FEE7FEE7FEE737
:1001A000FEE7FEE704480549054A064B7047000094
:1001B00095190008ED00000890020020900800202A
:1001C00090040020900400204FF0000200B5134678
:1001D00094469646203922BFA0E80C50A0E80C5067
:1001E000B1F12001BFF4F7AF090728BFA0E80C5018
:1001F00048BF0CC05DF804EB890028BF40F8042B11
:1002000008BF704748BF20F8022B11F0804F18BF7D
:1002100000F8012B7047704770477047754600F033
:100220002BF8AE4605006946534620F00700854688
:1002300018B020B5FFF7B6FFBDE820404FF000062C
:100240004FF000074FF000084FF0000B21F00701BE
:10025000AC46ACE8C009ACE8C009ACE8C009ACE801
:10026000C0098D46704710B50446AFF300802046A4
:10027000BDE81040FFF781BF004870473002002002
:1002800001491820ABBEFEE7260002007047FEE7DA
:10029000014800F00DB80000EC010020014800F01A
:1002A00007B80000A8010020704772B6FEE7000002
:1002B0002DE9F05FC16B0C6801680B68D0F840C095
:1002C000042202FA0CF2494DDFF824A1494E4A4FAC
:1002D000DFF828B1DFF828E122422CD05A072AD5CE
:1002E0000A68920603D40A6822F004020A600168D0
:1002F000A94201D1042219E0514501D1402215E063
:10030000B14202D14FF4806210E0B94202D14FF401
:1003100080420BE0594502D14FF4802206E071453E
:1003200002D14FF4800201E04FF080622F4908397A
:100330004A60C16A3BE04FF0020808FA0CF818EA7C
:10034000040F4FF000094FF0010235D05FEA8378C7
:1003500032D50B689B0605D40B6823F00A030B60AB
:1003600080F821200168A94201D1022219E05145FB
:1003700001D1202215E0B14202D14FF4007210E009
:10038000B94202D14FF400520BE0594502D14FF46B
:10039000003206E0714502D14FF4001201E04FF047
:1003A0000072124908394A6080F82090816A002959
:1003B0001AD0BDE8F05F0847082505FA0CF525427C
:1003C00012D01B0710D50B6823F00E030B6090F8BA
:1003D0004010C36B02FA01F15960826380F821205A
:1003E00080F82090016BE2E7BDE8F09F0800024032
:1003F0001C0002403000024044000240580002400D
:100400006C00024030B528B308C8134914221944BF
:10041000B1FBF2F18900C163104981630221417788
:100420001A6843F6F0718A43D0E900142143D0E9F9
:1004300002452C43214304692143446921438469D3
:100440002143114319600021416301224277017762
:10045000084630BD012030BDF8FFFDBF000002405E
:1004600070B5044690F82000002501280CD001202A
:1004700084F8200094F821600020012E06D084F832
:1004800020000225284670BD022070BD022684F897
:100490002160A0632068066826F0010606602046F9
:1004A00001F076FCE06A00282068016802D041F083
:1004B0000E0106E021F0040101602068016841F0AE
:1004C0000A0101602068016841F001010160D9E77B
:1004D00070B5044600F004F90546601C02D00448DB
:1004E0000078044400F0FCF8401BA042FAD370BD31
:1004F000200000202DE9F84FDFF8B8910024A9F181
:10050000040B23460F2709F1040AABF1040EC9E0DE
:100510000125A5402A40AA427DD1674ED1F804C0EA
:10052000ACEB0608B44532D014DCBCF1030F3AD072
:1005300009DCBCF1000F2AD0BCF1010F1CD0BCF1CA
:10054000020F31D11DE0BCF1110F17D0BCF1120F19
:100550002AD119E0B8F5881F19D006DCB8F5803F1C
:1005600015D0B8F5801F1FD111E0B8F5001F0ED0CF
:10057000B8F5041F18D10AE0CB6815E0CB681B1D45
:1005800012E0CB6808330FE0CB680C330CE08B68CB
:100590002BB1012B4FF0080303D0456104E0042385
:1005A00002E0056100E00023FF2A01D8064601E0D1
:1005B00000F104064FEA840501D9A5F12005D6F81B
:1005C000008007FA05FC28EA0C0803FA05F548EA5A
:1005D0000508C6F800804D68ED0062D5374DAE695C
:1005E00046F00106AE61AD6924F0030605F0010591
:1005F0000095334D06EB050CDCF80850A607360FC6
:1006000007FA06F825EA0805DFF8B880404503D167
:100610004FF0000817E044E0DFF8AC80404502D11D
:100620004FF001080FE0DFF8A480404502D14FF001
:10063000020808E0DFF89880404502D14FF0030837
:1006400001E04FF0040808FA06F848EA0508CCF87B
:1006500008804D68D9F80060ED024D4601D516437B
:1006600000E096432E604D68DAF80060AD02554612
:1006700001D5164300E096432E604D68DBF800601C
:10068000AD035D4601D5164300E096432E604D68EC
:10069000DEF80060ED03754601D5164300E0964391
:1006A0002E60641C0D682A46E5407FF431AFBDE83A
:1006B000F88F0000080401400000111000100240F3
:1006C0000000014000080140000C01400010014002
:1006D000001401400AB1016170470904FBE7000002
:1006E00001488068704700002000002002488168AF
:1006F000027811448160704720000020074810B53F
:10070000016841F010010160032000F075F80F202E
:1007100000F006F800F024F8002010BD0020024090
:1007200070B50D4D04464FF47A712878B1FBF0F0A6
:100730000A490968B1FBF0F000F0E2FA48B9102C60
:1007400007D200222146501E00F036F800206C60CF
:1007500070BD012070BD0000200000202C00002092
:100760000C4808B5816941F001018161816901F09E
:1007700001010091C16941F08051C161C06900F07F
:10078000805000900448416821F0E06141F0007120
:10079000416008BD0010024000000140002809DB54
:1007A00000F01F02012191404009800000F1E0208B
:1007B000C0F8001170470000F0B40E4B1B680C46E7
:1007C000C3F30223C3F10705042D00D90425191D25
:1007D000072901D2002300E0DB1E012606FA05F1FD
:1007E000491E214099409E40761E16403143F0BC80
:1007F00001F07DBC0CED00E0064900F0070208683E
:100800004FF6FF03184040EA0220034A10430860F5
:10081000704700000CED00E00000FA052DE9F047FC
:100820000F46050061D0434E306800F00700B84223
:1008300009D2306820F0070038433060306800F09B
:100840000700B84251D128683B4C810712D54007B8
:1008500003D5606840F4E06060602878000703D545
:10086000606840F4605060606068A96820F0F00043
:10087000084360602878C00728D06868012810D035
:100880002168022810D0890700292EDA616821F03A
:10089000030101436160FFF723FF804641F288397D
:1008A0000DE021688903EFE78901EDE7FFF718FF05
:1008B000A0EB0801494502D90320BDE8F087606834
:1008C000696800F00C00B0EB810FEFD1306800F0E8
:1008D0000700B8420BD9306820F007003843306079
:1008E000306800F00700B84201D00120E5E7287821
:1008F000400705D56068E96820F4E060084360605F
:100900002878000706D56068296920F4605040EA1D
:10091000C100606000F038F86168084AC1F3031153
:10092000515CC8400649086006480068FFF7F8FEB9
:100930000020C2E700200240001002409021000881
:100940002C00002024000020044805490068496864
:10095000044AC1F30221515CC84070472C000020BA
:1009600000100240A02100080448054900684968B9
:10097000044AC1F3C221515CC84070472C000020DA
:1009800000100240A0210008104A516811F00C002C
:1009900003D0042803D0082803D00D4870470D4821
:1009A00070470D48C1F38343C903C05C0AD5516841
:1009B000094AC1F34041921E515C064A5043B0FBC4
:1009C000F1F07047054948437047000000100240AD
:1009D00000127A000024F4008021000800093D0084
:1009E0002DE9F84F040070D02078C04DC00749D0E1
:1009F0006868C0F38100012807D06868C0F38100EF
:100A0000022809D16868C00306D52868800339D553
:100A100060680028E7D035E06068B0F5803F0BD013
:100A200010B1B0F5A02F11D0286820F480302860D4
:100A3000286820F4802002E0286840F48030286094
:100A4000606890B1FFF74CFE06460AE0286840F463
:100A500080202860F0E700BFFFF742FE801B64287B
:100A600073D828688003F7D50CE0FFF739FE0646F7
:100A700005E000BFFFF734FE801B6428F0D828682B
:100A80008003F7D420789A4E80074FF001094FF089
:100A9000000839D5686810F00C0F07D06868C0F3FB
:100AA0008100022809D16868C00306D4286880073D
:100AB00014D52069012808D110E02069B0B1C6F82A
:100AC0000090FFF70DFE074605E00AE1FFF708FE7C
:100AD000C01B0228C4D828688007F7D52868616938
:100AE00020F0F80040EAC10028600DE0C6F8008060
:100AF000FFF7F6FD074604E0FFF7F2FDC01B0228F2
:100B000023D828688007F7D4207800072CD57948A7
:100B1000A169D9B1C0F80090FFF7E2FD074604E0F3
:100B2000FFF7DEFDC01B02280FD8686A8007F7D5E3
:100B300071484FF4FA510068B0FBF1F0009000BF2B
:100B40000098411E0091FAD20EE080E0C0F80080CB
:100B5000FFF7C6FD074604E0FFF7C2FDC01B0228F1
:100B600075D8686A8007F7D42078400760D5E869AF
:100B70000027C00008D4E86940F08050E861E869C7
:100B8000012700F0805000905C480168C90513D42B
:100B90000168834641F480710160FFF7A1FD824640
:100BA00006E000BFFFF79CFDA0EB0A0064284ED8CA
:100BB000DBF80000C005F5D5E06801280AD008B1CF
:100BC000052813D0286A20F001002862286A20F046
:100BD000040002E0286A40F001002862E06841F267
:100BE000883B98B1FFF77CFD82460BE0286A40F015
:100BF00004002862EEE700BFFFF772FDA0EB0A01D8
:100C000059455AD8286A8007F6D50CE0FFF768FDE9
:100C1000824605E0FFF764FDA0EB0A0159454CD878
:100C2000286A8007F6D41FB1E86920F08050E86197
:100C3000E06988B36968C1F38101022944D00228C0
:100C4000C6F8608004D0FFF74BFD044638E034E07E
:100C5000FFF746FD074604E0FFF742FDC01B0228F0
:100C60002BD828688001F7D4206AB0F5803F05D1E1
:100C70006868A16820F4003008436860D4E908017E
:100C80000843696821F4741108436860C6F86090ED
:100C9000FFF726FD044606E025E000BFFFF720FD34
:100CA000001B022809D828688001F7D51BE000BF87
:100CB000FFF716FD001B022802D90320BDE8F88FBC
:100CC00028688001F4D40EE00128F7D06868226A11
:100CD00000F48031914204D1616A00F470108842BE
:100CE00001D00120EAE70020E8E700000010024000
:100CF00000004242800442422C000020007000406C
:100D000010B5401EB0F1807F01D3012010BD4FF01F
:100D1000E02460610F21601701F0E9F90020A06173
:100D200007202061002010BD10B590F83C20012A5A
:100D300022D0012280F83C20CA688C6822F44072DC
:100D400022434C6822F4806222430C6822F4006241
:100D500022430C6922F4805222434C6922F400524F
:100D60002243C969002322F480420A4301684A648D
:100D700080F83C30002010BD022010BD70B590F806
:100D80003C20012A26D0012480F83C40022280F831
:100D90003D2003685A689D6822F070060A68324355
:100DA0005A600D4B02689A4208D0B2F1804F05D0CC
:100DB0000A4B9A4202D00A4B9A4204D1496825F064
:100DC00080031943916080F83D40002180F83C1079
:100DD000084670BD022070BD002C01400004004098
:100DE0000008004090F83D10012901D00120704713
:100DF000022180F83D1000680B49884208D0B0F10C
:100E0000804F05D00949884202D00949884204D15F
:100E1000816801F00701062903D0016841F0010152
:100E20000160002070470000002C014000040040D9
:100E30000008004090F83D10012901D001207047C2
:100E4000022180F83D100168CA6842F00102CA60C0
:100E500000680B49884208D0B0F1804F05D009499D
:100E6000884202D00849884204D1816801F0070114
:100E7000062903D0016841F001010160002070479C
:100E8000002C014000040040000800402DE9F04122
:100E90000D46040003D094F83D0018B108E001208D
:100EA000BDE8F081002084F83C00204600F040F8C6
:100EB000022084F83D002068816844F207029143D3
:100EC0008160211D206800F067FD226890689169AB
:100ED000166A2B68AF69034340F20330814341EA4D
:100EE0000721A868EF6908434FF6FC418843E96889
:100EF00040EA0720014328692F6A000140EA0730D1
:100F0000084369686D6926F0220646EA05152943FB
:100F100093602268906154F8460B0162012004F846
:100F20001F09E0752076E0762077A0750020B7E7EE
:100F300010B586B0002400940194029403940068D4
:100F4000B0F1804F30D11948C16941F00101C16150
:100F5000C16901F001010491816941F004018161DD
:100F6000816901F004010491816941F00801816106
:100F70008069694600F0080004904FF4004000903A
:100F80000B48FFF7B7FA0820CDE900046946094885
:100F90000294FFF7AFFA0849486820F4407040F027
:100FA000E06040F48070486006B010BD0010024060
:100FB00000080140000C0140000001402DE9F04113
:100FC000054690F83C0000260C46012810D0012070
:100FD00085F83C0072B1042A1CD0082A2CD00C2AB7
:100FE00050D00126002085F83C003046BDE8F08155
:100FF0000220FBE7D4E90012E368286800F042FD14
:101000002868816921F00C01816128688169A268E2
:1010100011430FE0D4E90012E368286800F044FFB0
:101020002868816921F44061816128688169A2682A
:1010300041EA02218161D5E72868D4E9002C277BA9
:10104000036A016A21F480710162C16923F40073AB
:1010500021F0030141EA0C0121F0F00C39074FF4B3
:1010600000774CEA116107EA02221A43C161026269
:101070002868C16921F00C01C1612868C169A268B2
:1010800011432BE02868D4E90021E768036AD0F80F
:1010900020C02CF4805CC0F820C0D0F81CC023F421
:1010A00000532CF4407C4CEA012121F4704C4FF6A3
:1010B000FF7101EA07314FF4005741EA0C0107EADA
:1010C00002321A43C16102622868C16921F4406199
:1010D000C1612868C169A26841EA0221C16181E752
:1010E00010B5040003D094F83D0010B107E00120D2
:1010F00010BD002084F83C00204600F01EF80220BD
:1011000084F83D00211D206800F046FC012084F891
:10111000460084F83E0084F83F0084F8400084F8DC
:10112000410084F8420084F8430084F8440084F8C5
:10113000450084F83D00002010BD704710B586B012
:101140000021009101910291039103682348244AF0
:10115000022183420FD1906940F0040090619069B0
:10116000039100F0040004904FF42060CDE90001E9
:1011700069461C482EE01C4C1C48A34219D19369B7
:1011800043F0080393619269039102F0080204920C
:101190001022CDE900216946FFF7ACF914484168F7
:1011A00021F4406141F0E06141F40061416006B02A
:1011B00010BD104CA342FAD1936943F00803936128
:1011C0009269039102F0080204924FF47072CDE923
:1011D00000216946FFF78EF9E9E70000002C014085
:1011E000001002400008014000040040000C0140D3
:1011F000000001400008004070B5044690F83C0033
:1012000000260D4601280FD0012084F83C006AB169
:10121000042A1DD0082A2FD00C2A3FD001260020F6
:1012200084F83C00304670BD022070BD206800F09C
:10123000C5FD2068816941F00801816120688169EC
:1012400021F004018161206881692A69114311E05C
:10125000206800F0EBFB2068816941F40061816146
:101260002068816921F480618161206881692A692F
:1012700041EA02218161D2E7206800F0C7FD2068C1
:10128000C16941F00801C1612068C16921F0040110
:10129000C1612068C1692A69114311E0206800F02A
:1012A000E1FD2068C16941F40061C1612068C16944
:1012B00021F48061C1612068C1692A6941EA022183
:1012C000C161ACE710B5040003D094F83D0010B143
:1012D00007E0012010BD002084F83C00204600F00B
:1012E0001FF8022084F83D00211D206800F054FB07
:1012F000012084F8460084F83E0084F83F0084F81A
:10130000400084F8410084F8420084F8430084F8E7
:10131000440084F8450084F83D00002010BD000022
:1013200000B585B0002100910191029103911E4A00
:1013300001681E48914207D1816941F400618161D1
:10134000806900F400602DE0194A914220D1C16902
:1013500041F00201C161C16901F00201049181699A
:1013600041F0080181618069694600F0080004903D
:10137000022000900F48FFF7BDF80F48416821F4A4
:10138000406141F0E06141F40061416005B000BDA1
:101390000A4A9142FAD1C16941F00401C161C069B0
:1013A00000F004000490F1E7002C0140001002401E
:1013B00000040040000C0140000001400008004013
:1013C00010B50446022249B104290ED0082913D0D1
:1013D00094F84100012816D0012010BD94F83E0079
:1013E0000128F9D184F83E200FE094F83F0001284D
:1013F000F2D184F83F2008E094F840000128EBD1B6
:1014000084F8402001E084F841200122206800F0A7
:10141000FFFA0F492068884203D1426C42F400422F
:1014200042642068884208D0B0F1804F05D0094955
:10143000884202D00849884204D1816801F007013E
:10144000062903D0016841F001010160002010BDB0
:10145000002C014000040040000800407047704725
:1014600070B5040004D094F84100002510B106E0E6
:10147000012070BD84F84050204600F023F824205D
:1014800084F841002068C16821F40051C160204601
:1014900000F04AFD2068016921F490410161206853
:1014A000416921F02A0141612068C16841F400517D
:1014B000C1606564202084F8410084F842006563BF
:1014C000002070BDF0B585B000240646009401945C
:1014D000029403940068294988424CD12848C16984
:1014E00041F48021C161C16901F4802104918169C5
:1014F00041F0080181618069224D00F008000490EC
:101500004FF4806000900220019003200390694610
:101510002846FEF7EFFFE814CDE9000469462846A7
:101520000294FEF7E7FF194D17488027C5E900042C
:10153000C5E902472C616C61AC612846EC61FEF79D
:1015400061FF08B1FEF7B1FEF5636E620F4D0E4804
:101550004435143801C5102091C50C4845F8104990
:1015600044306C61AC61EC61FEF74CFF08B1FEF7F2
:101570009CFEB5636E6205B0F0BD000000480040FF
:1015800000100240000C014030000240A801002081
:1015900090F84230202B01D00220704721B11AB1BF
:1015A0000023036300F0F4BA0120704710B500680F
:1015B0000649884209D100F099FA0549BDE8104072
:1015C000052201F11000FFF7E3BF10BD0048004005
:1015D000500100207047FEE70D4808B5416941F011
:1015E000010141614069002200F0010000901146B4
:1015F0000C20FFF7E1F80C20FFF7D0F8002211468D
:101600000D20FFF7D9F8BDE808400D20FFF7C6B858
:10161000001002402DE9F04786B0002432480094C3
:10162000019402940394816941F010018161816900
:1016300001F010010491816941F02001816181690B
:1016400001F020010491816941F008018161816903
:1016500001F008010491816941F004018161806910
:10166000DFF8888000F004004FF460450490002209
:1016700029464046FFF72EF8DFF874900022242117
:101680004846FFF727F8DFF86CA04FF48057002298
:1016900039465046FFF71EF80095022601250396AD
:1016A000CDE9015469464046FEF724FF2420CDE9E8
:1016B0000005CDE9024669464846FEF71BFFA80231
:1016C00000900D48CDE9010469465046FEF712FF2F
:1016D00000970396CDE9015469465046FEF70AFF8C
:1016E00006B0BDE8F0870000001002400010014085
:1016F000000C0140000801400000111010B592B02C
:1017000000240F941C2168461094FEF75DFD2021F3
:1017100007A8FEF759FD2448224901604721C0E986
:10172000011440F2CF71C0E9031444618461FFF7F2
:10173000C9FD08B1FEF7B9FD0F940FA91A4810941E
:10174000FFF71CFB08B1FEF7B0FD6020CDE90004F7
:101750000294039404940594042269461248069462
:10176000FFF74AFD08B1FEF7A0FD0C2269460E48BE
:10177000FFF742FD08B1FEF798FD0794089409941D
:101780004FF400500A94CDE90B4007A906480E9487
:10179000FFF7CAFA08B1FEF788FD0348FFF7CEFC51
:1017A00012B010BD002C01403000002010B58CB0EC
:1017B00024216846FEF708FD0024154809944FF0DF
:1017C00080410A94C0E900144FF6FF71C0E902415C
:1017D000046184610120CDE90004CDE90204049490
:1017E000CDE905400794694609480894FFF74EFB88
:1017F00008B1FEF75AFD099409A905480A94FFF7B4
:10180000BDFA002801D0FEF750FD0CB010BD00005D
:101810007800002010B58EB000240B941C2168467F
:101820000C94FEF7D1FC21480794089409941E49B2
:101830000A9401604721C0E901143121C0E9031471
:101840008461FFF73FFD08B1FEF72FFD1748FFF752
:1018500047FC08B1FEF729FD0B940BA913480C9423
:10186000FFF78CFA08B1FEF720FD6020CDE90004F7
:101870000294002269460D480494FFF7BDFC08B1AC
:10188000FEF713FD0120CDE9074009940C2207A9BA
:1018900006480A94FFF792FB08B1FEF706FD0348DD
:1018A000FFF74CFC0EB010BD00040040C00000204B
:1018B00010B58AB0002407941C2168460894FEF7EE
:1018C00083FC2248204901604721C0E9011440F20D
:1018D000CF71C0E903148461FFF7F4FC08B1FEF78F
:1018E000E4FC079407A919480894FFF747FA08B1E0
:1018F000FEF7DBFC6020CDE900040294002269467B
:1019000012480494FFF778FC08B1FEF7CEFC0422DD
:1019100069460E48FFF770FC08B1FEF7C6FC0822C6
:1019200069460A48FFF768FC08B1FEF7BEFC0C22C6
:1019300069460648FFF760FC08B1FEF7B6FC0348AD
:10194000FFF7FCFB0AB010BD0008004008010020B2
:101950000C4810B50A4901604FF4E13141600021A3
:1019600081600C22C160C0E904128161C161FFF78E
:1019700077FD002803D0BDE81040FEF796BC10BDEF
:101980000048004060010020FEE7FEE77047704716
:10199000FEF7ACBE70470000F0B50268194B1A4C58
:1019A0001A4D4FF08047984205D0B84203D0A0426C
:1019B00001D0A84203D122F070064A68324398420F
:1019C00005D0B84203D0A04201D0A84203D122F4EE
:1019D0004074CA6822434C6922F0800222430260AC
:1019E0008A68C2620A688262984201D10969016309
:1019F000012141610169C90703D0016921F0010199
:101A00000161F0BD002C01400004004000080040CE
:101A100010B501F01F030121046A99408C43046250
:101A2000016A9A401143016210BD000030B5026A9C
:101A3000036A23F010030362436884690D6824F489
:101A4000E64444EA05248D6822F0200242EA0512A9
:101A50000B4DA8420ED1CD6822F0800242EA051259
:101A60004D6923F4406343EA85038D6922F0400207
:101A700043EA85034360846149688163026230BD43
:101A8000002C014070B5056A046A24F00104046268
:101A900084690F4EB04208D0B0F1804F05D00D4E92
:101AA000B04202D00C4EB04203D124F003041443E0
:101AB00001E044F001041A0724F0F00444EA126241
:101AC00025F00A0301F00A0119438261016270BD29
:101AD000002C01400004004000080040024905229B
:101AE00001F11000FFF754BD500100201E4810B551
:101AF0000178AB2936D14178827841EA0221C27857
:101B0000007941EA024141EA0064204600F024FBEA
:101B1000164A6423C2E9020115494FF4FA60A0EBAA
:101B2000145008801349C4F303400870C4F3033110
:101B30005943114B1980114BC4F3032119801470C0
:101B40000F4A00F0010111700E4AC0F340011170FC
:101B50000D4A40F38001491C11700C4940F3C0004C
:101B6000401C087010BD0000500100201000002033
:101B7000040000200A0000200600002008000020C9
:101B800000000020010000200200002003000020CF
:101B900038B58162044682850020134660642222A3
:101BA00084F84220E56B1B4AAA62E56B1A4AEA6296
:101BB000E56B1A4A2A63E26B50630A462168E06BC0
:101BC000091DFEF74DFC20680168406800902069FF
:101BD00048B120680C3050E8001F41F4807140E8A3
:101BE0000012002AF5D12068143050E8001F41F09F
:101BF000010140E80012002AF5D12068143050E8B5
:101C0000001F41F0400140E80012002AF5D10020F9
:101C100038BD000069200008E11F0008DF1E000831
:101C2000FEE7000070B5234D214C2968A088886329
:101C3000214E22784FF400413046FEF74BFD2968D3
:101C4000A0884863627820211C48FEF743FD29687C
:101C5000A0880864A27871143046FEF73BFD29681D
:101C6000A088C863E2784FF480413046FEF732FD29
:101C7000134D0020296888632089002817D029681F
:101C8000E0880864012291020E48FEF723FD2968CE
:101C90004FF4966088638010FEF71AFC29684FF4B1
:101CA000FA608863BDE870404010FEF711BC70BD5B
:101CB000000000200801002000100140000C01403D
:101CC000300000200008014010B590B0282168467F
:101CD000FEF77AFA14210AA8FEF776FA0121080421
:101CE000CDE900104200029202240491CDE90740A0
:101CF0004FF4E01009906846FEF772FE08B172B624
:101D0000FEE70F20CDE90A0400204FF48061CDE901
:101D10000C010E9002210AA8FEF780FD002801D0D8
:101D200072B6FEE710B010BD10B51548FFF782F887
:101D30001448FFF757F81448FFF754F81348FFF713
:101D400051F804210F48FFF73BFB0C210D48FFF72A
:101D500037FB00210A48FFF733FB00210B48FFF750
:101D60002FFB0C210948FFF72BFB08210748FFF741
:101D700027FBBDE8104004210448FFF721BB000009
:101D8000C000002030000020780000200801002062
:101D900030B590F840500124AC40C56B6C600468CD
:101DA00063604368102B036803D099600068C260C9
:101DB00030BD9A600068C16030BD000030B5036A74
:101DC000026A22F0010202624268846924F073050B
:101DD0000C682C4323F002058B682B430A4DA84264
:101DE0000BD123F00805CB6822F440722B434D69D8
:101DF00023F0040315438A692A43426084614968D9
:101E00004163036230BD0000002C014030B5036A1D
:101E1000026A22F4807202624268C46923F4007389
:101E200024F073050C682C438D6843EA05230C4DA0
:101E3000A8420ED1CD6823F4006343EA05234D691F
:101E400022F4405242EA05128D6923F4806342EA8B
:101E500005124260C4614968C163036230BD00007D
:101E6000002C014030B5046A026A22F480520262FA
:101E70004268C3690D6823F4E64343EA05238D688D
:101E800024F4005444EA0534064DA84204D14D69B7
:101E900022F4804242EA85124260C36149680164CB
:101EA000046230BD002C014030B5046A056A25F09B
:101EB00010050562856925F4407545EA022222F481
:101EC00070454FF6FF7202EA033224F0A0032A4362
:101ED000A02404EA011119438261016230BD70B58A
:101EE000446A2068406994F84110C0F3C01000258E
:101EF000212904D118B1E584204600F0A7F8206814
:101F0000406994F84210C0F38010222904D118B11E
:101F1000E585204600F073F8606C40F010006064C6
:101F20002046FFF79CFA70BD70B504460068016951
:101F3000E26821F44051114301612169A06808431E
:101F4000616908432168CA6841F20C639A430243FD
:101F5000CA6020684169A26921F44071114341615E
:101F60001E492068884202D1FEF7FEFC01E0FEF720
:101F7000EBFC00EBC00101EB001260686421800003
:101F8000B2FBF0F3B3FBF1F36FF018067343B2FB4F
:101F9000F0F5B2FBF0F605EB8305322303EB0515F4
:101FA000B5FBF1F5B6FBF1F605F0F00505EB06150E
:101FB000B2FBF0F6B2FBF0F0B0FBF1F06FF01802FC
:101FC000504306EB800003EB0010B0FBF1F02168FA
:101FD00000F00F002844886070BD00000038014008
:101FE00010B5406A01214163016B012902D0FFF75E
:101FF000F1FA10BD818D4908FFF730FA10BD016874
:102000000C3151E8002F22F4907241E80023002B9C
:10201000F5D10168143151E8002F22F0010241E8A6
:102020000023002BF5D1016B012909D101680C3186
:1020300051E8002F22F0100241E80023002BF5D1D7
:10204000202180F8421000210163704701680C31A3
:1020500051E8002F22F0C00241E80023002BF5D107
:10206000202180F84110704710B50146406A096888
:1020700009684FF0000289062ED4C28501680C3130
:1020800051E8003F23F4807341E80034002CF5D17F
:102090000168143151E8003F23F0010341E80034A6
:1020A000002CF5D10168143151E8003F23F04003C2
:1020B00041E80034002CF5D1202180F84210016B5A
:1020C000012909D101680C3151E8003F23F01003C8
:1020D00041E80034002CF5D14263016B012902D0A4
:1020E000FFF764FA10BD818DFFF7B8F910BD09073D
:1020F000090E002804DB00F1E02080F8001470478E
:1021000000F00F0000F1E02080F8141D704700007F
:10211000FEF7F4FAFFF7D8FDFFF77CFAFFF75CFA59
:10212000FFF7ECFAFFF742FBFFF774FBFFF7C0FB8A
:10213000FFF70EFCFFF7F8FDFFF7D0FC0549044858
:102140000968C088C1F84000FFF76CFDFCE700009B
:102150000000002030000020B0FA80F310FA03F1F4
:102160000AD0C3F11D0303F580634FEA41504FEAE3
:10217000035202EBD12170474FF00000704701027B
:1021800002030405060708090A0B0C0D0E0F1010B8
:102190000000000000000000010203040607080917
:1021A0000000000001020304C82100080000002014
:1021B0003000000028010008F8210008300000204D
:1021C000600800004401000800000000D007D007AC
:1021D00000000000000000000000000000000000FF
:1021E00000000000000000000100000010000000DE
:0821F0000000000000127A005B
:04000005080000ED02
:00000001FF
